{
  "contractName": "FlickerFilmContract",
  "abi": [
    {
      "constant": false,
      "inputs": [
        {
          "name": "colorAndLength",
          "type": "bytes4"
        }
      ],
      "name": "addColor",
      "outputs": [],
      "payable": false,
      "stateMutability": "nonpayable",
      "type": "function"
    },
    {
      "constant": false,
      "inputs": [
        {
          "name": "colorAndLength",
          "type": "bytes4"
        },
        {
          "name": "index",
          "type": "uint256"
        }
      ],
      "name": "changeColor",
      "outputs": [],
      "payable": false,
      "stateMutability": "nonpayable",
      "type": "function"
    },
    {
      "constant": true,
      "inputs": [
        {
          "name": "index",
          "type": "uint256"
        }
      ],
      "name": "getColor",
      "outputs": [
        {
          "name": "",
          "type": "bytes4"
        }
      ],
      "payable": false,
      "stateMutability": "view",
      "type": "function"
    },
    {
      "constant": true,
      "inputs": [],
      "name": "getCount",
      "outputs": [
        {
          "name": "count",
          "type": "uint256"
        }
      ],
      "payable": false,
      "stateMutability": "view",
      "type": "function"
    },
    {
      "constant": true,
      "inputs": [
        {
          "name": "",
          "type": "uint256"
        }
      ],
      "name": "colors",
      "outputs": [
        {
          "name": "",
          "type": "bytes4"
        }
      ],
      "payable": false,
      "stateMutability": "view",
      "type": "function"
    }
  ],
  "bytecode": "0x6060604052341561000f57600080fd5b61041c8061001e6000396000f30060606040526004361061006d576000357c0100000000000000000000000000000000000000000000000000000000900463ffffffff1680631d12671b146100725780632989e18b146100b457806380057b9a146100ff578063a87d942c14610174578063bd11f69d1461019d575b600080fd5b341561007d57600080fd5b6100b260048080357bffffffffffffffffffffffffffffffffffffffffffffffffffffffff1916906020019091905050610212565b005b34156100bf57600080fd5b6100fd60048080357bffffffffffffffffffffffffffffffffffffffffffffffffffffffff191690602001909190803590602001909190505061027c565b005b341561010a57600080fd5b61012060048080359060200190919050506102dd565b60405180827bffffffffffffffffffffffffffffffffffffffffffffffffffffffff19167bffffffffffffffffffffffffffffffffffffffffffffffffffffffff1916815260200191505060405180910390f35b341561017f57600080fd5b610187610333565b6040518082815260200191505060405180910390f35b34156101a857600080fd5b6101be600480803590602001909190505061033f565b60405180827bffffffffffffffffffffffffffffffffffffffffffffffffffffffff19167bffffffffffffffffffffffffffffffffffffffffffffffffffffffff1916815260200191505060405180910390f35b600080548060010182816102269190610391565b916000526020600020906008918282040191900660040283909190916101000a81548163ffffffff02191690837c0100000000000000000000000000000000000000000000000000000000900402179055505050565b8160008281548110151561028c57fe5b90600052602060002090600891828204019190066004026101000a81548163ffffffff02191690837c0100000000000000000000000000000000000000000000000000000000900402179055505050565b600080828154811015156102ed57fe5b90600052602060002090600891828204019190066004029054906101000a90047c0100000000000000000000000000000000000000000000000000000000029050919050565b60008080549050905090565b60008181548110151561034e57fe5b9060005260206000209060089182820401919006600402915054906101000a90047c01000000000000000000000000000000000000000000000000000000000281565b8154818355818115116103c65760070160089004816007016008900483600052602060002091820191016103c591906103cb565b5b505050565b6103ed91905b808211156103e95760008160009055506001016103d1565b5090565b905600a165627a7a72305820c03d0904c1adb9882c167071b91cc4bdd35e2d36654f3a774eab91cc0b28aede0029",
  "source": "pragma solidity ^0.4.0;\n\ncontract FlickerFilmContract {\n  bytes4[] public colors;\n  function getCount() public constant returns(uint count) {\n    return colors.length;\n  }\n  function getColor(uint index) public constant returns(bytes4) {\n    return colors[index];\n  }\n  function addColor(bytes4 colorAndLength) public {\n    colors.push(colorAndLength);\n  }\n  function changeColor(bytes4 colorAndLength, uint index) public {\n    colors[index] = colorAndLength;\n  }\n}",
  "sourcePath": "/Users/WINSLOW/Sites/sharits/sharits-app/contracts/FlickerFilm.sol",
  "compiler": {
    "name": "solc",
    "version": "0.4.18+commit.9cf6e910.Emscripten.clang"
  },
  "schemaVersion": "1.0.1",
  "updatedAt": "2017-12-08T15:06:59.454Z"
}